:10000000F9C000000EC100000CC100000AC10000D0
:1000100008C1000006C1000004C1000002C10000C8
:1000200000C10000FEC00000FCC00000FAC00000DB
:10003000F8C00000F6C00000F4C00000F2C00000EC
:10004000F0C00000EEC00000ECC00000EAC00000FC
:10005000C1C60000E6C00000E4C00000E2C000002D
:10006000E0C00000DEC00000DCC00000DAC000001C
:10007000D8C00000D6C00000D4C00000D2C000002C
:10008000D0C00000CEC00000CCC00000CAC000003C
:10009000C8C00000C6C00000C4C0000017C10000F6
:1000A0006AC10000BEC1000012C20000BAC0000058
:1000B000B8C00000B6C00000B4C00000B2C000006C
:1000C000B0C00000AEC00000ACC00000AAC000007C
:1000D000A8C0000048C40000A4C00000A2C00000E6
:1000E000A0C000009EC000009CC000009AC000009C
:1000F00098C0000096C0000094C0000092C00000AC
:1001000090C000008EC000008CC000008AC00000BB
:1001100088C0000086C0000084C0000082C00000CB
:1001200080C000007EC000007CC000007AC00000DB
:1001300078C000000C946E0974C000000C94AD09E6
:100140000C94EC090C942B0A0C946A0A0C94180970
:1001500068C0000066C0000064C0000062C000000B
:1001600060C000005EC000005CC000005AC000001B
:1001700058C0000056C0000054C0000052C000002B
:1001800050C000004EC0000053C200004AC0000032
:1001900048C0000046C0000044C0000042C000004B
:1001A00040C000003EC000003CC000003AC000005B
:1001B00038C0000036C0000034C0000032C000006B
:1001C00030C000002EC0000012C300002AC0000092
:1001D00028C0000026C0000024C0000022C000008B
:1001E00020C000001EC000001CC000001AC000009B
:1001F00018C0000011241FBECFEFCDBFDFE3DEBF6C
:1002000000E00CBF18BE19BE1ABE1BBE20E2A0E063
:10021000B0E201C01D92AF33B207E1F73DD70C94B5
:10022000070DEECECF93DF93CDB7DEB780E492E03B
:1002300021E0FC01208382E492E020E2FC012083A3
:1002400081E492E0FC01108282E692E022E0FC016F
:1002500020838AE692E022E0FC01208382E792E09C
:1002600022E0FC0120838AE792E022E0FC01208367
:1002700084E492E0FC01108280E492E0FC0111A28F
:1002800080E492E028E0FC0121A780E492E020E1F4
:10029000FC0121AB80E492E028E1FC0121AF80E485
:1002A00092E021E0FC0120A380E492E021E0FC0147
:1002B00020A780E492E021E0FC0120AB80E492E002
:1002C00021E0FC0120AFDF91CF9108951F920F92A2
:1002D00000903F000F921124009038000F9210926E
:1002E000380000903A000F9210923A0000903B00C4
:1002F0000F9210923B002F933F938F939F93EF9316
:10030000FF93CF93DF93CDB7DEB780912B2084305E
:10031000B0F480912B20882F90E024E632E0F901A0
:1003200020813181880F991F855F9F4DFC012083BB
:10033000318380912B208F5F80932B2005C080918B
:100340003020826080933020DF91CF91FF91EF9138
:100350009F918F913F912F910F9000923B000F90B2
:1003600000923A000F90009238000F9000923F00E8
:100370000F901F9018951F920F9200903F000F92C0
:100380001124009038000F921092380000903A002B
:100390000F9210923A0000903B000F9210923B0097
:1003A0002F933F938F939F93EF93FF93CF93DF937D
:1003B000CDB7DEB780912D208430B8F480912D2008
:1003C000882F90E02CE632E0F901208131810896F7
:1003D000880F991F855F9F4DFC0120833183809199
:1003E0002D208F5F80932D2005C080913020886064
:1003F00080933020DF91CF91FF91EF919F918F916A
:100400003F912F910F9000923B000F9000923A0085
:100410000F90009238000F9000923F000F901F90B5
:1004200018951F920F9200903F000F921124009098
:1004300038000F921092380000903A000F921092FC
:100440003A0000903B000F9210923B002F933F9395
:100450008F939F93EF93FF93CF93DF93CDB7DEB747
:1004600080912E208430B8F480912E20882F90E047
:1004700024E732E0F901208131810C96880F991F21
:10048000855F9F4DFC012083318380912E208F5FFB
:1004900080932E2005C08091302080618093302091
:1004A000DF91CF91FF91EF919F918F913F912F918C
:1004B0000F9000923B000F9000923A000F90009234
:1004C00038000F9000923F000F901F9018951F92D8
:1004D0000F9200903F000F921124009038000F926D
:1004E0001092380000903A000F9210923A0000905B
:1004F0003B000F9210923B002F933F938F939F935B
:10050000EF93FF93CF93DF93CDB7DEB780912C208D
:100510008430B8F480912C20882F90E02CE732E0D2
:10052000F901208131810496880F991F855F9F4DC5
:10053000FC012083318380912C208F5F80932C20BD
:1005400005C080913020846080933020DF91CF916E
:10055000FF91EF919F918F913F912F910F9000927A
:100560003B000F9000923A000F90009238000F90DD
:1005700000923F000F901F901895CF93DF93CDB757
:10058000DEB780E296E0FC01108280EE96E02FEF6D
:10059000FC01208380EE96E0FC01148280E696E068
:1005A0002FE0FC01208380E896E02FEFFC01208300
:1005B000DF91CF910895CF93DF93CDB7DEB781E080
:1005C00097E0FC0110828AE097E02FEFFC01208386
:1005D00089E097E022E0FC01208380E197E021E0C0
:1005E000FC01208381E197E021E0FC01208382E18E
:1005F00097E021E0FC01208383E197E021E0FC010A
:10060000208384E197E021E0FC01208385E197E0ED
:1006100021E0FC01208386E197E021E0FC012083BA
:1006200087E197E021E0FC012083DF91CF910895DD
:100630001F920F9200903F000F92112400903800FB
:100640000F921092380000903A000F9210923A00E8
:1006500000903B000F9210923B002F933F938F939B
:100660009F93EF93FF93CF93DF93CDB7DEB780EEE9
:1006700096E020EE36E0F901348120E82327FC01E2
:10068000248388E097E0FC018081882F90E0883007
:10069000910509F442C08930910554F482309105E6
:1006A00029F18430910571F181309105A9F070C074
:1006B0008032910509F451C08132910524F48031D2
:1006C0009105B9F165C08034910509F45AC08038AC
:1006D000910509F459C05CC0109234201092352065
:1006E0008091302080628093302052C080E49FE16E
:1006F00080933420909335208091302080628093C5
:10070000302046C0809136208F78809336208091AB
:1007100030208064809330203BC0809136208F78D9
:1007200080618093362080913020806480933020D7
:100730002FC080910A20833061F4809136208F7819
:1007400080628093362080913020806480933020B6
:100750001FC082E080930A201BC080910A20833052
:1007600061F4809136208F78806380933620809169
:1007700030208064809330200BC081E080930A2079
:1007800007C010920A2004C083E080930A20000072
:10079000DF91CF91FF91EF919F918F913F912F9199
:1007A0000F9000923B000F9000923A000F90009241
:1007B00038000F9000923F000F901F901895CF9334
:1007C000DF93CDB7DEB786E69BE020E533ECFC0196
:1007D0002083318380E49BE025E0FC01208386E4D4
:1007E0009BE021E0FC012083DF91CF9108951F92CF
:1007F0000F9200903F000F921124009038000F924A
:100800001092380000903A000F9210923A008F93A5
:10081000CF93DF93CDB7DEB7809131208160809395
:100820003120DF91CF918F910F9000923A000F907D
:10083000009238000F9000923F000F901F90189583
:10084000CF93DF93CDB7DEB780EE96E0FC018481D5
:10085000882331F480EE96E021E0FC01248309C076
:1008600080EE96E020EE36E0F9012481220FFC01B3
:100870002483DF91CF910895CF93DF93CDB7DEB777
:100880001092322010923320109234201092352092
:10089000809136208E7F80933620809136208D7F08
:1008A00080933620809136208B7F809336208091F4
:1008B0003620877F80933620809136208F78806124
:1008C0008093362084E696E02FE0FC012083DF91C0
:1008D000CF910895CF93DF93CDB7DEB786E29AE04C
:1008E00020E137E2FC012083318380E09AE025E0BB
:1008F000FC01208381E09AE023EFFC01208388E261
:100900009AE0FC01108211828AE29AE0FC011082D6
:1009100011828CE29AE0FC01108211828EE29AE050
:10092000FC011082118282E09AE02FE0FC0120831A
:10093000DF91CF910895CF93DF93CDB7DEB786E6F1
:100940009AE020E23EE4FC012083318380E49AE0D7
:1009500025E0FC01208386E49AE021E0FC0120836D
:10096000DF91CF9108951F920F9200903F000F9258
:100970001124009038000F921092380000903A0035
:100980000F9210923A008F93CF93DF93CDB7DEB7DB
:1009900080913620806880933620DF91CF918F91AF
:1009A0000F9000923A000F90009238000F90009242
:1009B0003F000F901F901895CF93DF931F92CDB7F4
:1009C000DEB7898380913220909133208093342048
:1009D0009093352080E090E068D08981882F90E066
:1009E0008230910551F18330910534F4009771F014
:1009F00081309105B1F050C084309105A9F1843067
:100A0000910534F185309105D9F146C084E696E030
:100A10002AE0FC012083809136208F788093362055
:100A20003BC084E696E02FE0FC01208380913620D5
:100A30008F788061809336202FC084E696E0FC0199
:100A40001082809136208F7880628093362024C077
:100A500084E696E025E0FC012083809136208F78A3
:100A600080638093362018C084E696E023E0FC0182
:100A70002083809136208F788064809336200CC04C
:100A800084E696E02CE0FC012083809136208F786C
:100A9000806580933620000080913420909135202D
:100AA00004D00F90DF91CF910895CF93DF9300D0C2
:100AB0001F92CDB7DEB78B839C832091322030917B
:100AC00033208B819C818217930708F075C038C052
:100AD000809136208078882399F1809132209091FE
:100AE0003320845F9140809332209093332088E2BA
:100AF0009AE02091322030913320FC012083318311
:100B00008AE29AE02091322030913320FC01208348
:100B100031838CE29AE02091322030913320FC0125
:100B2000208331838EE29AE020913220309133206D
:100B3000FC0120833183809136208F77809336208B
:100B400020913220309133208B819C818217930732
:100B500008F4BECF8091322090913320843FF1E0A1
:100B60009F0708F01BC1109232201092332088E2B8
:100B70009AE02091322030913320FC012083318390
:100B80008AE29AE02091322030913320FC012083C8
:100B900031838CE29AE02091322030913320FC01A5
:100BA000208331838EE29AE02091322030913320ED
:100BB000FC0120833183F2C0809132209091332058
:100BC00089839A8347C08091322090913320883561
:100BD000FBE19F07C8F488E59BE180933220909366
:100BE000332088E29AE02091322030913320FC01BA
:100BF000208331838CE29AE020913220309133209F
:100C0000FC012083318326C08091362080788823A0
:100C100009F180913220909133208C509E4F809327
:100C200032209093332088E29AE020913220309154
:100C30003320FC01208331838CE29AE02091322022
:100C400030913320FC0120833183809136208F77CF
:100C50008093362020913220309133208B819C81EB
:100C60002817390708F4AFCF209132203091332074
:100C70008B819C8182179307C0F48B819C81809328
:100C800032209093332088E29AE0209132203091F4
:100C90003320FC01208331838CE29AE020913220C2
:100CA00030913320FC012083318389819A818093A4
:100CB00032209093332047C080913220909133208E
:100CC0008835FBE19F07C8F488E59BE180933220DB
:100CD000909333208AE29AE02091322030913320A1
:100CE000FC01208331838EE29AE020913220309102
:100CF0003320FC012083318326C080913620807808
:100D0000882309F180913220909133208C509E4F9E
:100D100080933220909333208AE29AE0209132200F
:100D200030913320FC01208331838EE29AE02091C0
:100D3000322030913320FC01208331838091362092
:100D40008F778093362020913220309133208B8111
:100D50009C812817390708F4AFCF209132203091B9
:100D600033208B819C8182179307C0F48B819C81F7
:100D700080933220909333208AE29AE020913220AF
:100D800030913320FC01208331838EE29AE0209160
:100D9000322030913320FC01208331832496CDBF53
:100DA000DEBFDF91CF910895CF93DF93CDB7DEB74C
:100DB00086E698E0FC011082118280E498E027E04A
:100DC000FC01208386E498E021E0FC012083DF9190
:100DD000CF9108951F920F9200903F000F9211241F
:100DE000009038000F921092380000903A000F9255
:100DF00010923A008F93CF93DF93CDB7DEB78091F7
:100E00003020806880933020DF91CF918F910F90B8
:100E100000923A000F90009238000F9000923F002D
:100E20000F901F901895CF93DF931F921F92CDB70D
:100E3000DEB789839A8386E698E029813A81FC01AE
:100E4000208331830F900F90DF91CF910895CF933E
:100E5000DF93CDB7DEB7809130208D7F8093302037
:100E6000809130208B7F8093302080913020877F4D
:100E700080933020809130208F7E8093302080912D
:100E800030208F7D80933020809130208F7B809325
:100E90003020809130208F778093302080913120D6
:100EA0008E7F80933120DF91CF910895CF93DF9390
:100EB000CDB7DEB7809130208D7F80933020809138
:100EC00030208B7F8093302080913020877F8093EB
:100ED0003020809130208F7E80933020DF91CF9121
:100EE0000895CF93DF93CDB7DEB740E050E060E0E8
:100EF00070E081E090E029D46BE370E287E390E258
:100F000059D4DF91CF910895CF93DF9300D000D0D3
:100F1000CDB7DEB719821A828FEF9FEF8B839C8348
:100F20001D821E823DC08D819E81880F991F805039
:100F3000904EFC012081318189819A81821793072B
:100F400070F48D81809308208D819E81880F991F78
:100F50008050904EFC018081918189839A838D819C
:100F60009E81880F991F8050904EFC012081318115
:100F70008B819C812817390770F48D81809309201B
:100F80008D819E81880F991F8050904EFC01808139
:100F900091818B839C838D819E8101968D839E831D
:100FA0008D819E81843091050CF4BDCF2696CDBFF6
:100FB000DEBFDF91CF910895CF93DF931F921F92F1
:100FC000CDB7DEB719821A8235C080910920282F4B
:100FD00030E089819A812817390739F580910820F6
:100FE000882F90E0880F991F8050904EFC018081DF
:100FF00091818139F1E09F07A8F080913620829598
:101000008F708770282F30E080910920882F90E022
:101010002817390719F080910920CEDC80E49FE180
:1010200044DD03C080E090E040DD89819A81019633
:1010300089839A8389819A818430910534F20F9053
:101040000F90DF91CF910895CF93DF931F921F925E
:10105000CDB7DEB719821A8214C089819A81880FB0
:10106000991F8050904EFC0180819181803FFAE071
:101070009F0710F480E00BC089819A8101968983D3
:101080009A8389819A81843091053CF381E00F90A5
:101090000F90DF91CF910895CF93DF93CDB7DEB757
:1010A00020DFD5DEE9DB03D12CD3F894A9D065DAB3
:1010B000B9D810DC40DC7FDA77DE81DB82EA90E0B1
:1010C00027E0FC012083789480E090E0EEDC109231
:1010D0000A2032C0809130208270882369F180918B
:1010E00030208071882341F18091302088708823DE
:1010F00019F18091302084708823F1F02AD2A4DF86
:10110000882321F081E080930A201AC0FDDE54DF9D
:10111000F8D2CCDE80EE96E020910920222F30E03C
:1011200022953295307F3227207F3227322F20912F
:101130000820232BFC01248380910A20882351F26C
:101140001FC0809130208074882359F08091362010
:1011500082958F70877030DC809130208F7B8093F8
:101160003020809130208072882351F0809134208B
:10117000909135209ADC809130208F7D80933020B3
:1011800080910A208330E9F203C082E080930A2034
:1011900080910A208130C9F32DC084E00DDC80E409
:1011A0009FE183DC809130208F778093302084E230
:1011B00094EF39DE0BC0809131208170882331F0AB
:1011C0003FDB809131208E7F8093312080913020D1
:1011D0008078882381F3809130208F77809330202E
:1011E00080E090E020DE80E090E05FDC8AD25EDE8E
:1011F00010920A2080910A20823079F200009CCF60
:10120000CF93DF93CDB7DEB786E699E020E533ECE8
:10121000FC012083318386E499E022E0FC012083F5
:1012200080E499E025E0FC012083DF91CF910895CF
:101230001F920F9200903F000F92112400903800EF
:101240000F921092380000903A000F9210923A00DC
:1012500000903B000F9210923B002F933F938F938F
:101260009F93EF93FF93CF93DF93CDB7DEB780E4E7
:1012700092E020E432E0F90120812C63FC0120831C
:10128000DF91CF91FF91EF919F918F913F912F919E
:101290000F9000923B000F9000923A000F90009246
:1012A00038000F9000923F000F901F901895CF9339
:1012B000DF93CDB7DEB7109200201092012010927C
:1012C0000620109207201092022010920320109204
:1012D000042010920520DF91CF9108951F920F9264
:1012E00000903F000F921124009038000F9210924E
:1012F000380000903A000F9210923A0000903B00A4
:101300000F9210923B002F933F938F939F93EF93F5
:10131000FF93CF93DF93CDB7DEB780EE96E020EE5C
:1013200036E0F90124812F60FC012483DF91CF9105
:10133000FF91EF919F918F913F912F910F9000928C
:101340003B000F9000923A000F90009238000F90EF
:1013500000923F000F901F9018951F920F920090DF
:101360003F000F921124009038000F921092380025
:1013700000903A000F9210923A0000903B000F92BA
:1013800010923B002F933F938F939F93EF93FF9384
:10139000CF93DF93CDB7DEB780EE96E020EE36E058
:1013A000F9012481277FFC012483DF91CF91FF91F4
:1013B000EF919F918F913F912F910F9000923B0061
:1013C0000F9000923A000F90009238000F90009218
:1013D0003F000F901F9018951F920F9200903F00B2
:1013E0000F921124009038000F9210923800009054
:1013F0003A000F9210923A0000903B000F92109228
:101400003B002F933F938F939F93EF93FF93CF9343
:10141000DF93CDB7DEB780EE96E020EE36E0F9013F
:1014200024812B7FFC012483DF91CF91FF91EF91E9
:101430009F918F913F912F910F9000923B000F90C1
:1014400000923A000F90009238000F9000923F00F7
:101450000F901F9018951F920F9200903F000F92CF
:101460001124009038000F921092380000903A003A
:101470000F9210923A0000903B000F9210923B00A6
:101480002F933F938F939F93EF93FF93CF93DF938C
:10149000CDB7DEB780EE96E020EE36E0F90124818C
:1014A0002D7FFC012483DF91CF91FF91EF919F91DC
:1014B0008F913F912F910F9000923B000F900092DF
:1014C0003A000F90009238000F9000923F000F906A
:1014D0001F9018951F920F9200903F000F921124B9
:1014E000009038000F921092380000903A000F924E
:1014F00010923A0000903B000F9210923B002F9305
:101500003F938F939F93EF93FF93CF93DF93CDB749
:10151000DEB780EE96E020EE36E0F90124812E7FE2
:10152000FC012483DF91CF91FF91EF919F918F91E7
:101530003F912F910F9000923B000F9000923A0044
:101540000F90009238000F9000923F000F901F9074
:101550001895CF93DF93CDB7DEB780E019D0809395
:1015600000209093012083E013D080930620909375
:10157000072081E00DD0809302209093032082E029
:1015800007D08093042090930520DF91CF91089598
:10159000CF93DF93CDB7DEB72F97CDBFDEBF8D875B
:1015A00019821A821B821C828D85882F90E08130DF
:1015B000910589F1823091051CF4009751F094C097
:1015C0008230910509F44AC08330910509F469C05D
:1015D0008BC01D821E8219C08D819E81880F991F2C
:1015E000855F9F4DFC012081318189819A81820F25
:1015F000931F89839A838B819C8101968B839C8323
:101600008D819E8101968D839E838D819E81843004
:10161000910514F369C01F8218861AC08F819885BE
:101620000896880F991F855F9F4DFC0120813181AD
:1016300089819A81820F931F89839A838B819C81F0
:1016400001968B839C838F81988501968F839887E1
:101650008F819885843091050CF346C019861A86CF
:101660001AC089859A850C96880F991F855F9F4DB2
:10167000FC012081318189819A81820F931F8983A6
:101680009A838B819C8101968B839C8389859A8523
:10169000019689879A8789859A85843091050CF30C
:1016A00023C01B861C861AC08B859C850496880FD8
:1016B000991F855F9F4DFC012081318189819A812D
:1016C000820F931F89839A838B819C8101968B83E0
:1016D0009C838B859C8501968B879C878B859C85BD
:1016E000843091050CF3000089819A812B813C8123
:1016F000B9012BD1CB012F96CDBFDEBFDF91CF91AA
:101700000895CF93DF93CDB7DEB710922B201092C0
:101710002C2010922D2010922E20DF91CF91089531
:101720000F93CF93DF931F92CDB7DEB72FB72983E7
:10173000F8941BBEFC0108ED04BF608389818FBF54
:101740000F90DF91CF910F910895CF93DF93D82F12
:10175000823059F028F4882371F0813021F50DC0D2
:10176000833029F08430F9F404C0C4E007C0C8E035
:1017700005C0C0E103C0C1E001C0C2E0E0E5F0E0A7
:1017800080818C2B8083642B81E490E0C9DFE1E5CC
:10179000F0E090819C23E9F36D2F80E490E0C0DFBE
:1017A00021E030E002C02FEF3FEF822F932FDF9137
:1017B000CF910895CF93DF93FC01EB01809140001E
:1017C0008770823071F038F4882309F442C0813088
:1017D00009F0B4C00FC08330B1F0843009F0AEC05E
:1017E0001BC080E09DE7A0E0B0E080839183A283EE
:1017F000B38337C080E098E4A8EEB1E080839183A2
:10180000A283B3832EC080E094E2A4EFB0E0808393
:101810009183A283B38325C025E530E0D9018C9163
:1018200080E894E8AEE1B0E080839183A283B38343
:10183000D9018C91A82FAF7109F4A1E0B0E020E8A4
:1018400034E84EE150E0B6D06083718382839383A5
:1018500008C080E894E8AEE1B0E080839183A28381
:10186000B383809141008C7790E09695879596950B
:1018700087958930910559F16CF483309105C1F059
:101880001CF4019781F437C085309105B1F00797BA
:1018900051F418C08D30910521F11CF40B9719F407
:1018A0001BC00F9719F121E030E040E050E027C065
:1018B00024E030E040E050E022C028E030E040E0AA
:1018C00050E01DC020E130E040E050E018C020E2D0
:1018D00030E040E050E013C020E430E040E050E071
:1018E0000EC020E830E040E050E009C020E031E0E8
:1018F00040E050E004C022E030E040E050E0809161
:10190000410081FF09C0220F331F441F551F220FC2
:10191000331F441F551F06C080FF04C0220F331F12
:10192000441F551F608171818281938121D028835A
:1019300039834A835B8321E030E002C02FEF3FEF21
:10194000822F932FDF91CF91089597FB072E16F4E6
:10195000009406D077FD08D037D007FC05D03EF4C0
:10196000909581959F4F0895709561957F4F08954B
:10197000A1E21A2EAA1BBB1BFD010DC0AA1FBB1F93
:10198000EE1FFF1FA217B307E407F50720F0A21B05
:10199000B30BE40BF50B661F771F881F991F1A9472
:1019A00069F760957095809590959B01AC01BD019C
:1019B000CF0108951DD0A59F900DB49F900DA49FB9
:1019C000800D911D11240895AA1BBB1B51E107C076
:1019D000AA1FBB1FA617B70710F0A61BB70B881FBF
:1019E000991F5A95A9F780959095BC01CD0108954E
:1019F000A29FB001B39FC001A39F700D811D112450
:101A0000911DB29F700D811D1124911D0895F894B0
:021A1000FFCF06
:00000001FF
