S01400006573636170655F726F626F742E737265631A
S1130000F9C000000EC100000CC100000AC10000CC
S113001008C1000006C1000004C1000002C10000C4
S113002000C10000FEC00000FCC00000FAC00000D7
S1130030F8C00000F6C0000043C70000F2C0000092
S11300407EC70000BBC70000F8C700000C945C0822
S1130050E8C00000E6C00000E4C00000E2C0000008
S1130060E0C00000DEC00000DCC00000DAC0000018
S1130070D8C00000D6C00000D4C00000D2C0000028
S1130080D0C00000CEC00000CCC00000CAC0000038
S1130090C8C00000C6C00000C4C0000017C10000F2
S11300A06AC10000BEC1000012C20000BAC0000054
S11300B0B8C00000B6C00000B4C00000B2C0000068
S11300C0B0C00000AEC00000ACC00000AAC0000078
S11300D0A8C00000E8C30000A4C00000A2C0000043
S11300E0A0C000009EC000009CC000009AC0000098
S11300F098C0000096C0000094C0000092C00000A8
S113010090C000008EC000008CC000008AC00000B7
S113011088C0000086C0000084C0000082C00000C7
S113012080C000007EC000007CC000007AC00000D7
S113013078C000000C94660974C000000C94A509F2
S11301400C94E4090C94230A0C94620A0C9410098C
S113015068C0000066C0000064C0000062C0000007
S113016060C000005EC000005CC000005AC0000017
S113017058C0000056C0000054C0000052C0000027
S113018050C000004EC0000053C200004AC000002E
S113019048C0000046C0000044C0000042C0000047
S11301A040C000003EC000003CC000003AC0000057
S11301B038C0000036C0000034C0000032C0000067
S11301C030C000002EC000002CC000002AC0000077
S11301D028C0000026C0000024C0000022C0000087
S11301E020C000001EC000001CC000001AC0000097
S11301F018C0000011241FBECFEFCDBFDFE3DEBF68
S113020000E00CBF18BE19BE1ABE1BBE20E2A0E05F
S1130210B0E201C01D92AC33B207E1F78CD70C9465
S1130220C40CEECECF93DF93CDB7DEB780E492E07B
S113023021ECFC01208382E492E020E2FC01208393
S113024081E492E0FC01108282E692E022E0FC016B
S113025020838AE692E022E0FC01208382E792E098
S113026022E0FC0120838AE792E022E0FC01208363
S113027084E492E0FC01108280E492E0FC0111A28B
S113028080E492E028E0FC0121A780E492E020E1F0
S1130290FC0121AB80E492E028E1FC0121AF80E481
S11302A092E021E0FC0120A380E492E021E0FC0143
S11302B020A780E492E021E0FC0120AB80E492E0FE
S11302C021E0FC0120AFDF91CF9108951F920F929E
S11302D000903F000F921124009038000F9210926A
S11302E0380000903A000F9210923A0000903B00C0
S11302F00F9210923B002F933F938F939F93EF9312
S1130300FF93CF93DF93CDB7DEB780912A2084305B
S1130310B0F480912A20882F90E024E632E0F9019D
S113032020813181880F991F865F9F4DFC012083B6
S1130330318380912A208F5F80932A2005C0809189
S11303402E20826080932E20DF91CF91FF91EF9138
S11303509F918F913F912F910F9000923B000F90AE
S113036000923A000F90009238000F9000923F00E4
S11303700F901F9018951F920F9200903F000F92BC
S11303801124009038000F921092380000903A0027
S11303900F9210923A0000903B000F9210923B0093
S11303A02F933F938F939F93EF93FF93CF93DF9379
S11303B0CDB7DEB780912C208430B8F480912C2006
S11303C0882F90E02CE632E0F901208131810896F3
S11303D0880F991F865F9F4DFC0120833183809194
S11303E02C208F5F80932C2005C080912E20886064
S11303F080932E20DF91CF91FF91EF919F918F9168
S11304003F912F910F9000923B000F9000923A0081
S11304100F90009238000F9000923F000F901F90B1
S113042018951F920F9200903F000F921124009094
S113043038000F921092380000903A000F921092F8
S11304403A0000903B000F9210923B002F933F9391
S11304508F939F93EF93FF93CF93DF93CDB7DEB743
S113046080912D208430B8F480912D20882F90E045
S113047024E732E0F901208131810C96880F991F1D
S1130480865F9F4DFC012083318380912D208F5FF7
S113049080932D2005C080912E20806180932E2092
S11304A0DF91CF91FF91EF919F918F913F912F9188
S11304B00F9000923B000F9000923A000F90009230
S11304C038000F9000923F000F901F9018951F92D4
S11304D00F9200903F000F921124009038000F9269
S11304E01092380000903A000F9210923A00009057
S11304F03B000F9210923B002F933F938F939F9357
S1130500EF93FF93CF93DF93CDB7DEB780912B208A
S11305108430B8F480912B20882F90E02CE732E0CF
S1130520F901208131810496880F991F865F9F4DC0
S1130530FC012083318380912B208F5F80932B20BB
S113054005C080912E20846080932E20DF91CF916E
S1130550FF91EF919F918F913F912F910F90009276
S11305603B000F9000923A000F90009238000F90D9
S113057000923F000F901F901895CF93DF93CDB753
S1130580DEB780E296E0FC01108280EE96E02FEF69
S1130590FC01208380EE96E0FC01148280E696E064
S11305A02FE0FC01208380E896E02FEFFC012083FC
S11305B0DF91CF910895CF93DF93CDB7DEB781E07C
S11305C097E0FC0110828AE097E02FEFFC01208382
S11305D089E097E022E0FC01208380E197E021E0BC
S11305E0FC01208381E197E021E0FC01208382E18A
S11305F097E021E0FC01208383E197E021E0FC0106
S1130600208384E197E021E0FC01208385E197E0E9
S113061021E0FC01208386E197E021E0FC012083B6
S113062087E197E021E0FC012083DF91CF910895D9
S11306301F920F9200903F000F92112400903800F7
S11306400F921092380000903A000F9210923A00E4
S113065000903B000F9210923B002F933F938F9397
S11306609F93EF93FF93CF93DF93CDB7DEB780EEE5
S113067096E020EE36E0F901348120E82327FC01DE
S1130680248388E097E0FC018081882F90E0883003
S1130690910509F443C08930910554F482309105E1
S11306A029F18430910571F181309105A9F065C07B
S11306B08032910509F449C08132910524F48031D6
S11306C09105B9F15AC08034910509F44AC08038C3
S11306D0910509F451C051C010923120109232207A
S11306E080912E20806280932E2047C088E893E179
S11306F0809331209093322080912E2080628093C9
S11307002E203BC080E49FE18093312090933220DF
S113071080912E20806280932E202FC080913320E0
S11307208F7C8093332080912E20806480932E20B0
S113073024C0809133208F7C80618093332080910A
S11307402E20806480932E2018C0809133208F7CCB
S113075080628093332080912E20806480932E20A9
S11307600CC08091332080638093332080912E20AD
S1130770806480932E2001C00000DF91CF91FF910F
S1130780EF919F918F913F912F910F9000923B0099
S11307900F9000923A000F90009238000F90009250
S11307A03F000F901F901895CF93DF93CDB7DEB71E
S11307B010922F201092302010923120109232206B
S11307C0809133208E7F80933320809133208D7FDE
S11307D080933320809133208B7F809333208091CA
S11307E03320877F80933320809133208F7C8061F6
S11307F08093332084E696E02FE0FC012083DF9190
S1130800CF910895CF93DF93CDB7DEB786E29AE018
S113081020E137E2FC012083318380E09AE025E087
S1130820FC01208381E09AE023EFFC01208388E22D
S11308309AE028E53BE1FC01208331838AE29AE0D7
S113084028E53BE1FC01208331838CE29AE028E532
S11308503BE1FC01208331838EE29AE028E53BE111
S1130860FC012083318382E09AE02FE0FC012083A5
S1130870DF91CF910895CF93DF93CDB7DEB786E6AE
S11308809AE020E23EE4FC012083318380E49AE094
S113089025E0FC01208386E49AE021E0FC0120832A
S11308A0DF91CF9108951F920F9200903F000F9215
S11308B01124009038000F921092380000903A00F2
S11308C00F9210923A0000903B000F9210923B005E
S11308D02F933F938F939F93EF93FF93CF93DF9344
S11308E0CDB7DEB78091332080648093332080E2DB
S11308F097E020E237E0F901348121E02327FC016D
S11309002483DF91CF91FF91EF919F918F913F913C
S11309102F910F9000923B000F9000923A000F909D
S1130920009238000F9000923F000F901F9018958E
S1130930CF93DF931F92CDB7DEB7898380913320A5
S113094082958F708370982F8981981709F450C00D
S113095080912F20909130208093312090933220E9
S113096080E090E049D08981882F90E08130910522
S1130970C1F0823091051CF4009741F034C08230FC
S11309809105D9F08330910519F12DC084E696E0E4
S11309902CE0FC012083809133208F7C80933320D2
S11309A022C084E696E02FE0FC012083809133206E
S11309B08F7C80618093332016C084E696E0FC012E
S11309C01082809133208F7C8062809333200BC00F
S11309D084E696E023E0FC01208380913320806349
S11309E0809333200000809131209091322004D0F4
S11309F00F90DF91CF910895CF93DF9300D01F9292
S1130A00CDB7DEB78B839C8320912F20309130208B
S1130A108B819C818217930708F075C038C0809140
S1130A2033208074882399F180912F209091302075
S1130A30845F914080932F209093302088E29AE045
S1130A4020912F2030913020FC01208331838AE2D1
S1130A509AE020912F2030913020FC0120833183B3
S1130A608CE29AE020912F2030913020FC012083E9
S1130A7031838EE29AE020912F2030913020FC01C6
S1130A8020833183809133208F7B80933320209186
S1130A902F20309130208B819C818217930708F49A
S1130AA0BECF80912F2090913020843FF1E09F07AA
S1130AB008F01BC110922F201092302088E29AE097
S1130AC020912F2030913020FC01208331838AE251
S1130AD09AE020912F2030913020FC012083318333
S1130AE08CE29AE020912F2030913020FC01208369
S1130AF031838EE29AE020912F2030913020FC0146
S1130B0020833183F2C080912F20909130208983FB
S1130B109A8347C080912F20909130208835FBE143
S1130B209F07C8F488E59BE180932F2090933020A1
S1130B3088E29AE020912F2030913020FC0120831C
S1130B4031838CE29AE020912F2030913020FC01F7
S1130B502083318326C0809133208074882309F157
S1130B6080912F20909130208C509E4F80932F2085
S1130B709093302088E29AE020912F203091302009
S1130B80FC01208331838CE29AE020912F20309164
S1130B903020FC0120833183809133208F7B80932C
S1130BA0332020912F20309130208B819C81281775
S1130BB0390708F4AFCF20912F20309130208B815A
S1130BC09C8182179307C0F48B819C8180932F2092
S1130BD09093302088E29AE020912F2030913020A9
S1130BE0FC01208331838CE29AE020912F20309104
S1130BF03020FC012083318389819A8180932F20C6
S1130C009093302047C080912F20909130208835D8
S1130C10FBE19F07C8F488E59BE180932F20909324
S1130C2030208AE29AE020912F2030913020FC017C
S1130C30208331838EE29AE020912F20309130205E
S1130C40FC012083318326C0809133208074882363
S1130C5009F180912F20909130208C509E4F8093E9
S1130C602F20909330208AE29AE020912F20309117
S1130C703020FC01208331838EE29AE020912F20E2
S1130C8030913020FC0120833183809133208F7B8D
S1130C908093332020912F20309130208B819C81B0
S1130CA02817390708F4AFCF20912F203091302036
S1130CB08B819C8182179307C0F48B819C818093E4
S1130CC02F20909330208AE29AE020912F203091B7
S1130CD03020FC01208331838EE29AE020912F2082
S1130CE030913020FC01208331832496CDBFDEBFB8
S1130CF0DF91CF910895CF93DF93CDB7DEB7809185
S1130D002E208D7F80932E2080912E208B7F8093A8
S1130D102E2080912E20877F80932E2080912E205C
S1130D208F7E80932E2080912E208F7D80932E2085
S1130D3080912E208F7B80932E20DF91CF91089578
S1130D40CF93DF93CDB7DEB780912E208D7F809334
S1130D502E2080912E208B7F80932E2080912E2018
S1130D60877F80932E2080912E208F7E80932E204B
S1130D70DF91CF910895CF93DF93CDB7DEB740E0F5
S1130D8050E060E070E081E090E0C3D468E370E29A
S1130D9084E390E2F3D4DF91CF910895CF93DF936E
S1130DA000D000D0CDB7DEB719821A828FEF9FEF43
S1130DB08B839C831D821E823DC08D819E81880F02
S1130DC0991F8050904EFC012081318189819A8144
S1130DD08217930770F48D81809308208D819E8102
S1130DE0880F991F8050904EFC01808191818983E6
S1130DF09A838D819E81880F991F8050904EFC01AB
S1130E00208131818B819C812817390770F48D8171
S1130E10809309208D819E81880F991F8050904E68
S1130E20FC01808191818B839C838D819E810196BD
S1130E308D839E838D819E81833091050CF4BDCF7B
S1130E402696CDBFDEBFDF91CF910895CF93DF9378
S1130E501F921F92CDB7DEB719821A8227C08091E4
S1130E600920282F30E089819A8128173907C9F48D
S1130E7080910820882F90E0880F991F8050904E11
S1130E80FC01808191818139F1E09F0738F08091E4
S1130E9009204EDD80E49FE1AFDD03C080E090E0F7
S1130EA0ABDD89819A81019689839A8389819A81AC
S1130EB083309105A4F20F900F90DF91CF910895A4
S1130EC01F920F9200903F000F921124009038005F
S1130ED00F921092380000903A000F9210923A004C
S1130EE000903B000F9210923B002F933F938F93FF
S1130EF09F93EF93FF93CF93DF93CDB7DEB780EE4D
S1130F0096E020EE36E0F9012481206FFC01248371
S1130F10DF91CF91FF91EF919F918F913F912F910D
S1130F200F9000923B000F9000923A000F900092B5
S1130F3038000F9000923F000F901F9018951F9259
S1130F400F9200903F000F921124009038000F92EE
S1130F501092380000903A000F9210923A000090DC
S1130F603B000F9210923B002F933F938F939F93DC
S1130F70EF93FF93CF93DF93CDB7DEB780EE96E088
S1130F8020EE36E0F90124812F77FC012483DF91E0
S1130F90CF91FF91EF919F918F913F912F910F905E
S1130FA000923B000F9000923A000F90009238009C
S1130FB00F9000923F000F901F9018951F920F9270
S1130FC000903F000F921124009038000F9210926D
S1130FD0380000903A000F9210923A0000903B00C3
S1130FE00F9210923B002F933F938F939F93EF9315
S1130FF0FF93CF93DF93CDB7DEB780EE96E020EE7C
S113100036E0F90124812F7BFC012483DF91CF9109
S1131010FF91EF919F918F913F912F910F900092AB
S11310203B000F9000923A000F90009238000F900E
S113103000923F000F901F9018951F920F920090FE
S11310403F000F921124009038000F921092380044
S113105000903A000F9210923A0000903B000F92D9
S113106010923B002F933F938F939F93EF93FF93A3
S1131070CF93DF93CDB7DEB780EE96E020EE36E077
S1131080F90124812F7DFC012483DF91CF91FF910D
S1131090EF919F918F913F912F910F9000923B0080
S11310A00F9000923A000F90009238000F90009237
S11310B03F000F901F9018951F920F9200903F00D1
S11310C00F921124009038000F9210923800009073
S11310D03A000F9210923A0000903B000F92109247
S11310E03B002F933F938F939F93EF93FF93CF9363
S11310F0DF93CDB7DEB780EE96E020EE36E0F9015F
S113110024812F7EFC012483DF91CF91FF91EF9105
S11311109F918F913F912F910F9000923B000F90E0
S113112000923A000F90009238000F9000923F0016
S11311300F901F901895CF93DF93CDB7DEB71BDECA
S1131140DADD32DBACD0C1D2F89452D016DA6AD8E8
S113115059DB91DB30DA82EA90E027E0FC0120835E
S1131160789480E090E048DC80912E20827088237F
S1131170F1F080912E2080718823C9F080912E2077
S113118088708823A1F080912E208470882379F0C0
S113119080EE96E020EE36E0F901348121E0232749
S11311A0FC012483CED1FADD51DE8FD2C9DD8091DA
S11311B02E208074882359F08091332082958F707B
S11311C08370B6DB80912E208F7B80932E208091BC
S11311D02E208072882359F0809131209091322002
S11311E00BDC80912E208F7D80932E20BDCFBCCF31
S11311F0CF93DF93CDB7DEB786E699E020E533ECF5
S1131200FC012083318386E499E022E0FC01208301
S113121080E499E025E0FC012083DF91CF910895DB
S11312201F920F9200903F000F92112400903800FB
S11312300F921092380000903A000F9210923A00E8
S113124000903B000F9210923B002F933F938F939B
S11312509F93EF93FF93CF93DF93CDB7DEB780E4F3
S113126092E020E432E0F90120812C63FC01208328
S1131270DF91CF91FF91EF919F918F913F912F91AA
S11312800F9000923B000F9000923A000F90009252
S113129038000F9000923F000F901F901895CF9345
S11312A0DF93CDB7DEB71092002010920120109288
S11312B00620109207201092022010920320109210
S11312C0042010920520DF91CF9108951F920F9270
S11312D000903F000F921124009038000F9210925A
S11312E0380000903A000F9210923A0000903B00B0
S11312F00F9210923B002F933F938F939F93EF9302
S1131300FF93CF93DF93CDB7DEB780EE96E020EE68
S113131036E0F90124812F60FC012483DF91CF9111
S1131320FF91EF919F918F913F912F910F90009298
S11313303B000F9000923A000F90009238000F90FB
S113134000923F000F901F9018951F920F920090EB
S11313503F000F921124009038000F921092380031
S113136000903A000F9210923A0000903B000F92C6
S113137010923B002F933F938F939F93EF93FF9390
S1131380CF93DF93CDB7DEB780EE96E020EE36E064
S1131390F9012481277FFC012483DF91CF91FF9100
S11313A0EF919F918F913F912F910F9000923B006D
S11313B00F9000923A000F90009238000F90009224
S11313C03F000F901F9018951F920F9200903F00BE
S11313D00F921124009038000F9210923800009060
S11313E03A000F9210923A0000903B000F92109234
S11313F03B002F933F938F939F93EF93FF93CF9350
S1131400DF93CDB7DEB780EE96E020EE36E0F9014B
S113141024812B7FFC012483DF91CF91FF91EF91F5
S11314209F918F913F912F910F9000923B000F90CD
S113143000923A000F90009238000F9000923F0003
S11314400F901F9018951F920F9200903F000F92DB
S11314501124009038000F921092380000903A0046
S11314600F9210923A0000903B000F9210923B00B2
S11314702F933F938F939F93EF93FF93CF93DF9398
S1131480CDB7DEB780EE96E020EE36E0F901248198
S11314902D7FFC012483DF91CF91FF91EF919F91E8
S11314A08F913F912F910F9000923B000F900092EB
S11314B03A000F90009238000F9000923F000F9076
S11314C01F9018951F920F9200903F000F921124C5
S11314D0009038000F921092380000903A000F925A
S11314E010923A0000903B000F9210923B002F9311
S11314F03F938F939F93EF93FF93CF93DF93CDB756
S1131500DEB780EE96E020EE36E0F90124812E7FEE
S1131510FC012483DF91CF91FF91EF919F918F91F3
S11315203F912F910F9000923B000F9000923A0050
S11315300F90009238000F9000923F000F901F9080
S11315401895CF93DF93CDB7DEB780E019D08093A1
S113155000209093012083E013D080930620909381
S1131560072081E00DD0809302209093032082E035
S113157007D08093042090930520DF91CF910895A4
S1131580CF93DF93CDB7DEB72B97CDBFDEBF8B876D
S113159019821A828B85882F90E08130910561F140
S11315A0823091051CF4009751F080C0823091057F
S11315B009F440C08330910509F45AC077C01B82F6
S11315C01C8214C08B819C81880F991F865F9F4D5C
S11315D0FC012081318189819A81820F931F898343
S11315E09A838B819C8101968B839C838B819C81C4
S11315F0843091053CF35AC01D821E8215C08D8132
S11316009E810896880F991F865F9F4DFC0120815B
S1131610318189819A81820F931F89839A838D8175
S11316209E8101968D839E838D819E818430910558
S113163034F33CC01F82188615C08F8198850C96A0
S1131640880F991F865F9F4DFC012081318189811C
S11316509A81820F931F89839A838F81988501963B
S11316608F8398878F8198858430910534F31EC0C9
S113167019861A8615C089859A850496880F991F3C
S1131680865F9F4DFC012081318189819A81820F7F
S1131690931F89839A8389859A85019689879A8776
S11316A089859A858430910534F3000089819A8173
S11316B099230CF4039695958795959587952B9684
S11316C0CDBFDEBFDF91CF910895CF93DF93CDB728
S11316D0DEB710922A2010922B2010922C20109208
S11316E02D20DF91CF9108950F93CF93DF931F9215
S11316F0CDB7DEB72FB72983F8941BBEFC0108EDE4
S113170004BF608389818FBF0F90DF91CF910F91C8
S11317100895CF93DF93D82F823059F028F488238B
S113172071F0813021F50DC0833029F08430F9F453
S113173004C0C4E007C0C8E005C0C0E103C0C1E004
S113174001C0C2E0E0E5F0E080818C2B8083642B53
S113175081E490E0C9DFE1E5F0E090819C23E9F3C6
S11317606D2F80E490E0C0DF21E030E002C02FEF75
S11317703FEF822F932FDF91CF910895CF93DF9383
S1131780FC01EB01809140008770823071F038F4E5
S1131790882309F442C0813009F0B4C00FC08330FB
S11317A0B1F0843009F0AEC01BC080E09DE7A0E03A
S11317B0B0E080839183A283B38337C080E098E450
S11317C0A8EEB1E080839183A283B3832EC080E02E
S11317D094E2A4EFB0E080839183A283B38325C015
S11317E025E530E0D9018C9180E894E8AEE1B0E0E1
S11317F080839183A283B383D9018C91A82FAF7185
S113180009F4A1E0B0E020E834E84EE150E0A3D0D0
S1131810608371838283938308C080E894E8AEE197
S1131820B0E080839183A283B383809141008C775D
S113183090E096958795969587958930910559F10D
S11318406CF483309105C1F01CF4019781F437C026
S113185085309105B1F0079751F418C08D3091058A
S113186021F11CF40B9719F41BC00F9719F121E017
S113187030E040E050E027C024E030E040E050E0B9
S113188022C028E030E040E050E01DC020E130E01C
S113189040E050E018C020E230E040E050E013C0E7
S11318A020E430E040E050E00EC020E830E040E0CA
S11318B050E009C020E031E040E050E004C022E004
S11318C030E040E050E08091410081FF09C0220FE8
S11318D0331F441F551F220F331F441F551F06C0BB
S11318E080FF04C0220F331F441F551F6081718184
S11318F0828193810ED0288339834A835B8321E0DC
S113190030E002C02FEF3FEF822F932FDF91CF9172
S11319100895A1E21A2EAA1BBB1BFD010DC0AA1F2C
S1131920BB1FEE1FFF1FA217B307E407F50720F044
S1131930A21BB30BE40BF50B661F771F881F991FBF
S11319401A9469F760957095809590959B01AC0108
S1131950BD01CF01089509D0A59F900DB49F900DAE
S1131960A49F800D911D11240895A29FB001B39FDF
S1131970C001A39F700D811D1124911DB29F700D94
S10F1980811D1124911D0895F894FFCFDF
S9030000FC
