S01400006573636170655F726F626F742E737265631A
S1130000F9C000000EC100000CC100000AC10000CC
S113001008C1000006C1000004C1000002C10000C4
S113002000C10000FEC00000FCC00000FAC00000D7
S1130030F8C00000F6C00000F4C00000F2C00000E8
S1130040F0C00000EEC00000ECC00000EAC00000F8
S1130050D3C60000E6C00000E4C00000E2C0000017
S1130060E0C00000DEC00000DCC00000DAC0000018
S1130070D8C00000D6C00000D4C00000D2C0000028
S1130080D0C00000CEC00000CCC00000CAC0000038
S1130090C8C00000C6C00000C4C0000017C10000F2
S11300A06AC10000BEC1000012C20000BAC0000054
S11300B0B8C00000B6C00000B4C00000B2C0000068
S11300C0B0C00000AEC00000ACC00000AAC0000078
S11300D0A8C000005AC40000A4C00000A2C00000D0
S11300E0A0C000009EC000009CC000009AC0000098
S11300F098C0000096C0000094C0000092C00000A8
S113010090C000008EC000008CC000008AC00000B7
S113011088C0000086C0000084C0000082C00000C7
S113012080C000007EC000007CC000007AC00000D7
S113013078C000000C94870974C000000C94C609B0
S11301400C94050A0C94440A0C94830A0C94310907
S113015068C0000066C0000064C0000062C0000007
S113016060C000005EC000005CC000005AC0000017
S113017058C0000056C0000054C0000052C0000027
S113018050C000004EC0000053C200004AC000002E
S113019048C0000046C0000044C0000042C0000047
S11301A040C000003EC000003CC000003AC0000057
S11301B038C0000036C0000034C0000032C0000067
S11301C030C000002EC0000010C300002AC0000090
S11301D028C0000026C0000024C0000022C0000087
S11301E020C000001EC000001CC000001AC0000097
S11301F018C0000011241FBECFEFCDBFDFE3DEBF68
S113020000E00CBF18BE19BE1ABE1BBE20E2A0E05F
S1130210B0E201C01D92AE33B207E1F74FD70C94A0
S1130220E50CEECECF93DF93CDB7DEB780E492E05A
S113023021E0FC01208382E492E020E2FC0120839F
S113024081E492E0FC01108282E692E022E0FC016B
S113025020838AE692E022E0FC01208382E792E098
S113026022E0FC0120838AE792E022E0FC01208363
S113027084E492E0FC01108280E492E0FC0111A28B
S113028080E492E028E0FC0121A780E492E020E1F0
S1130290FC0121AB80E492E028E1FC0121AF80E481
S11302A092E021E0FC0120A380E492E021E0FC0143
S11302B020A780E492E021E0FC0120AB80E492E0FE
S11302C021E0FC0120AFDF91CF9108951F920F929E
S11302D000903F000F921124009038000F9210926A
S11302E0380000903A000F9210923A0000903B00C0
S11302F00F9210923B002F933F938F939F93EF9312
S1130300FF93CF93DF93CDB7DEB780912B2084305A
S1130310B0F480912B20882F90E024E632E0F9019C
S113032020813181880F991F855F9F4DFC012083B7
S1130330318380912B208F5F80932B2005C0809187
S11303402F20826080932F20DF91CF91FF91EF9136
S11303509F918F913F912F910F9000923B000F90AE
S113036000923A000F90009238000F9000923F00E4
S11303700F901F9018951F920F9200903F000F92BC
S11303801124009038000F921092380000903A0027
S11303900F9210923A0000903B000F9210923B0093
S11303A02F933F938F939F93EF93FF93CF93DF9379
S11303B0CDB7DEB780912D208430B8F480912D2004
S11303C0882F90E02CE632E0F901208131810896F3
S11303D0880F991F855F9F4DFC0120833183809195
S11303E02D208F5F80932D2005C080912F20886061
S11303F080932F20DF91CF91FF91EF919F918F9167
S11304003F912F910F9000923B000F9000923A0081
S11304100F90009238000F9000923F000F901F90B1
S113042018951F920F9200903F000F921124009094
S113043038000F921092380000903A000F921092F8
S11304403A0000903B000F9210923B002F933F9391
S11304508F939F93EF93FF93CF93DF93CDB7DEB743
S113046080912E208430B8F480912E20882F90E043
S113047024E732E0F901208131810C96880F991F1D
S1130480855F9F4DFC012083318380912E208F5FF7
S113049080932E2005C080912F20806180932F208F
S11304A0DF91CF91FF91EF919F918F913F912F9188
S11304B00F9000923B000F9000923A000F90009230
S11304C038000F9000923F000F901F9018951F92D4
S11304D00F9200903F000F921124009038000F9269
S11304E01092380000903A000F9210923A00009057
S11304F03B000F9210923B002F933F938F939F9357
S1130500EF93FF93CF93DF93CDB7DEB780912C2089
S11305108430B8F480912C20882F90E02CE732E0CE
S1130520F901208131810496880F991F855F9F4DC1
S1130530FC012083318380912C208F5F80932C20B9
S113054005C080912F20846080932F20DF91CF916C
S1130550FF91EF919F918F913F912F910F90009276
S11305603B000F9000923A000F90009238000F90D9
S113057000923F000F901F901895CF93DF93CDB753
S1130580DEB780E296E0FC01108280EE96E02FEF69
S1130590FC01208380EE96E0FC01148280E696E064
S11305A02FE0FC01208380E896E02FEFFC012083FC
S11305B0DF91CF910895CF93DF93CDB7DEB781E07C
S11305C097E0FC0110828AE097E02FEFFC01208382
S11305D089E097E022E0FC01208380E197E021E0BC
S11305E0FC01208381E197E021E0FC01208382E18A
S11305F097E021E0FC01208383E197E021E0FC0106
S1130600208384E197E021E0FC01208385E197E0E9
S113061021E0FC01208386E197E021E0FC012083B6
S113062087E197E021E0FC012083DF91CF910895D9
S11306301F920F9200903F000F92112400903800F7
S11306400F921092380000903A000F9210923A00E4
S113065000903B000F9210923B002F933F938F9397
S11306609F93EF93FF93CF93DF93CDB7DEB780EEE5
S113067096E020EE36E0F901348120E82327FC01DE
S1130680248388E097E0FC018081882F90E0883003
S1130690910509F442C08930910554F482309105E2
S11306A029F18430910571F181309105A9F070C070
S11306B08032910509F451C08132910524F48031CE
S11306C09105B9F165C08034910509F45AC08038A8
S11306D0910509F459C05CC0109233201092342063
S11306E080912F20806280932F2052C088E293E271
S11306F0809333209093342080912F2080628093C4
S11307002F2046C0809135208F78809335208091AA
S11307102F20806480932F203BC0809135208F78D8
S113072080618093352080912F20806480932F20D6
S11307302FC080910A20833061F4809135208F7816
S113074080628093352080912F20806480932F20B5
S11307501FC082E080930A201BC080910A2083304E
S113076061F4809135208F78806380933520809167
S11307702F20806480932F200BC081E080930A2077
S113078007C010920A2004C083E080930A2000006E
S1130790DF91CF91FF91EF919F918F913F912F9195
S11307A00F9000923B000F9000923A000F9000923D
S11307B038000F9000923F000F901F901895CF9330
S11307C0DF93CDB7DEB786E69BE0FC011082118291
S11307D080E49BE025E0FC01208386E49BE021E0AB
S11307E0FC012083DF91CF9108951F920F92009016
S11307F03F000F921124009038000F92109238009D
S113080000903A000F9210923A008F93CF93DF93A7
S1130810CDB7DEB780913020816080933020DF91A6
S1130820CF918F910F9000923A000F900092380070
S11308300F9000923F000F901F901895CF93DF9375
S1130840CDB7DEB780EE96E0FC018481882331F4D5
S113085080EE96E021E0FC01248309C080EE96E05E
S113086020EE36E0F9012481220FFC012483DF917C
S1130870CF910895CF93DF931F921F92CDB7DEB728
S113088089839A8386E69BE029813A81FC0120834F
S113089031830F900F90DF91CF910895CF93DF9321
S11308A0CDB7DEB71092312010923220109233204F
S11308B010923420809135208E7F80933520809152
S11308C035208D7F80933520809135208B7F8093D8
S11308D0352080913520877F809335208091352085
S11308E08F7880618093352084E696E02FE0FC01C8
S11308F02083DF91CF910895CF93DF93CDB7DEB7F7
S113090086E29AE020E137E2FC012083318380E033
S11309109AE025E0FC01208381E09AE023EFFC01CA
S1130920208388E29AE0FC01108211828AE29AE034
S1130930FC01108211828CE29AE0FC011082118287
S11309408EE29AE0FC011082118282E09AE02FE0AC
S1130950FC012083DF91CF910895CF93DF93CDB72E
S1130960DEB786E69AE020E23EE4FC012083318390
S113097080E49AE025E0FC01208386E49AE021E00B
S1130980FC012083DF91CF9108951F920F92009074
S11309903F000F921124009038000F9210923800FB
S11309A000903A000F9210923A008F93CF93DF9306
S11309B0CDB7DEB780913520806880933520DF91F4
S11309C0CF918F910F9000923A000F9000923800CF
S11309D00F9000923F000F901F901895CF93DF93D4
S11309E01F92CDB7DEB78983809131209091322058
S11309F0809333209093342080E090E068D0898104
S1130A00882F90E08230910551F18330910534F4C0
S1130A10009771F081309105B1F050C08430910598
S1130A20A9F18430910534F185309105D9F146C09E
S1130A3084E696E02AE0FC012083809135208F78BB
S1130A40809335203BC084E696E02FE0FC012083B0
S1130A50809135208F788061809335202FC084E683
S1130A6096E0FC011082809135208F78806280931B
S1130A70352024C084E696E025E0FC0120838091A3
S1130A8035208F7880638093352018C084E696E003
S1130A9023E0FC012083809135208F78806480934B
S1130AA035200CC084E696E02CE0FC012083809184
S1130AB035208F7880658093352000008091332025
S1130AC09091342004D00F90DF91CF910895CF936B
S1130AD0DF9300D01F92CDB7DEB78B839C83209128
S1130AE03120309132208B819C818217930708F04A
S1130AF075C038C0809135208078882399F1809121
S1130B00312090913220845F9140809331209093E2
S1130B10322088E29AE02091312030913220FC0189
S1130B20208331838AE29AE020913120309132206F
S1130B30FC01208331838CE29AE0209131203091B2
S1130B403220FC01208331838EE29AE0209131200F
S1130B5030913220FC0120833183809135208F77BE
S1130B608093352020913120309132208B819C81DB
S1130B708217930708F4BECF8091312090913220E0
S1130B80843FF1E09F0708F01BC1109231201092BE
S1130B90322088E29AE02091312030913220FC0109
S1130BA0208331838AE29AE02091312030913220EF
S1130BB0FC01208331838CE29AE020913120309132
S1130BC03220FC01208331838EE29AE0209131208F
S1130BD030913220FC0120833183F2C08091312096
S1130BE09091322089839A8347C0809131209091DB
S1130BF032208034FFE19F07C8F480E49FE18093B2
S1130C0031209093322088E29AE020913120309173
S1130C103220FC01208331838CE29AE02091312040
S1130C2030913220FC012083318326C0809135200D
S1130C308078882309F180913120909132208C5062
S1130C409E4F809331209093322088E29AE0209145
S1130C50312030913220FC01208331838CE29AE0F0
S1130C602091312030913220FC0120833183809106
S1130C7035208F7780933520209131203091322098
S1130C808B819C812817390708F4AFCF209131203C
S1130C90309132208B819C8182179307C0F48B8121
S1130CA09C81809331209093322088E29AE02091B5
S1130CB0312030913220FC01208331838CE29AE090
S1130CC02091312030913220FC01208331838981AD
S1130CD09A81809331209093322047C080913120B3
S1130CE0909132208034FFE19F07C8F480E49FE1B3
S1130CF080933120909332208AE29AE0209131202F
S1130D0030913220FC01208331838EE29AE02091DD
S1130D10312030913220FC012083318326C0809120
S1130D2035208078882309F18091312090913220F8
S1130D308C509E4F80933120909332208AE29AE027
S1130D402091312030913220FC01208331838EE2C6
S1130D509AE02091312030913220FC0120833183AC
S1130D60809135208F7780933520209131203091E8
S1130D7032208B819C812817390708F4AFCF20914A
S1130D803120309132208B819C8182179307C0F4EB
S1130D908B819C8180933120909332208AE29AE067
S1130DA02091312030913220FC01208331838EE266
S1130DB09AE02091312030913220FC01208331834C
S1130DC02496CDBFDEBFDF91CF910895CF93DF93FB
S1130DD0CDB7DEB786E698E0FC011082118280E48C
S1130DE098E027E0FC01208386E498E021E0FC0100
S1130DF02083DF91CF9108951F920F9200903F00BE
S1130E000F921124009038000F9210923800009035
S1130E103A000F9210923A008F93CF93DF93CDB79D
S1130E20DEB780912F20806880932F20DF91CF91AF
S1130E308F910F9000923A000F90009238000F901B
S1130E4000923F000F901F901895CF93DF931F924D
S1130E501F92CDB7DEB789839A8386E698E029810D
S1130E603A81FC01208331830F900F90DF91CF9161
S1130E700895CF93DF93CDB7DEB780912F208D7F78
S1130E8080932F2080912F208B7F80932F2080911F
S1130E902F20877F80932F2080912F208F7E809317
S1130EA02F2080912F208F7D80932F2080912F20C1
S1130EB08F7B80932F2080912F208F7780932F20FA
S1130EC0809130208E7F80933020DF91CF910895E0
S1130ED0CF93DF93CDB7DEB780912F208D7F8093A2
S1130EE02F2080912F208B7F80932F2080912F2083
S1130EF0877F80932F2080912F208F7E80932F20B7
S1130F00DF91CF910895CF93DF93CDB7DEB740E063
S1130F1050E060E070E081E090E01CD46AE370E2AD
S1130F2086E390E24CD4DF91CF910895CF93DF9381
S1130F3000D000D0CDB7DEB719821A828FEF9FEFB1
S1130F408B839C831D821E823DC08D819E81880F70
S1130F50991F8050904EFC012081318189819A81B2
S1130F608217930770F48D81809308208D819E8170
S1130F70880F991F8050904EFC0180819181898354
S1130F809A838D819E81880F991F8050904EFC0119
S1130F90208131818B819C812817390770F48D81E0
S1130FA0809309208D819E81880F991F8050904ED7
S1130FB0FC01808191818B839C838D819E8101962C
S1130FC08D839E838D819E81843091050CF4BDCFE9
S1130FD02696CDBFDEBFDF91CF910895CF93DF93E7
S1130FE01F921F92CDB7DEB719821A8235C0809145
S1130FF00920282F30E089819A812817390739F58B
S113100080910820882F90E0880F991F8050904E7F
S1131010FC01808191818139F1E09F07A8F08091E2
S1131020352082958F708770282F30E080910920B9
S1131030882F90E02817390719F080910920CEDC19
S113104088E293E244DD03C080E090E040DD8981E2
S11310509A81019689839A8389819A818430910542
S113106034F20F900F90DF91CF910895CF93DF93D7
S11310701F921F92CDB7DEB719821A8214C08981DC
S11310809A81880F991F8050904EFC018081918134
S1131090883EF3E09F0710F480E00BC089819A81B9
S11310A0019689839A8389819A81843091053CF3DE
S11310B081E00F900F90DF91CF910895CF93DF934C
S11310C0CDB7DEB720DFD5DEE9DB0AD11FD3F89434
S11310D0B0D053DAA7D810DC40DC6DDA77DE6FDBF2
S11310E082EA90E027E0FC012083789480E090E09D
S11310F0EEDC10920A2032C080912F208270882367
S113110069F180912F208071882341F180912F20F3
S11311108870882319F180912F2084708823F1F03E
S113112031D2A4DF882321F081E080930A201AC001
S1131130FDDE54DFEBD2CCDE80EE96E02091092078
S1131140222F30E022953295307F3227207F3227BC
S1131150322F20910820232BFC01248380910A2024
S1131160882351F21FC080912F208074882359F066
S11311708091352082958F70877030DC80912F208C
S11311808F7B80932F2080912F208072882351F0B1
S113119080913320909134209ADC80912F208F7D90
S11311A080932F2080910A208330E9F203C082E0EB
S11311B080930A2080910A208130C9F333C084E0EF
S11311C00DDC88E293E283DC80E593EC53DB8091D1
S11311D02F208F7780932F2084E294EF36DE0BC08C
S11311E0809130208170882331F028DB8091302079
S11311F08E7F8093302080912F208078882381F304
S113120080912F208F7780932F2080E090E01DDE47
S113121080E090E02FDB80E090E059DC77D258DE6C
S113122010920A2080910A20823009F4C8CF00006D
S113123095CFCF93DF93CDB7DEB786E699E020E56F
S113124033ECFC012083318386E499E022E0FC0145
S1131250208380E499E025E0FC012083DF91CF9195
S113126008951F920F9200903F000F921124009056
S113127038000F921092380000903A000F921092AA
S11312803A0000903B000F9210923B002F933F9343
S11312908F939F93EF93FF93CF93DF93CDB7DEB7F5
S11312A080E492E020E432E0F90120812C63FC0127
S11312B02083DF91CF91FF91EF919F918F913F9187
S11312C02F910F9000923B000F9000923A000F90E4
S11312D0009238000F9000923F000F901F901895D5
S11312E0CF93DF93CDB7DEB7109200201092012088
S11312F010920620109207201092022010920320D0
S11313001092042010920520DF91CF9108951F922E
S11313100F9200903F000F921124009038000F921A
S11313201092380000903A000F9210923A00009008
S11313303B000F9210923B002F933F938F939F9308
S1131340EF93FF93CF93DF93CDB7DEB780EE96E0B4
S113135020EE36E0F90124812F60FC012483DF9123
S1131360CF91FF91EF919F918F913F912F910F908A
S113137000923B000F9000923A000F9000923800C8
S11313800F9000923F000F901F9018951F920F929C
S113139000903F000F921124009038000F92109299
S11313A0380000903A000F9210923A0000903B00EF
S11313B00F9210923B002F933F938F939F93EF9341
S11313C0FF93CF93DF93CDB7DEB780EE96E020EEA8
S11313D036E0F9012481277FFC012483DF91CF913A
S11313E0FF91EF919F918F913F912F910F900092D8
S11313F03B000F9000923A000F90009238000F903B
S113140000923F000F901F9018951F920F9200902A
S11314103F000F921124009038000F921092380070
S113142000903A000F9210923A0000903B000F9205
S113143010923B002F933F938F939F93EF93FF93CF
S1131440CF93DF93CDB7DEB780EE96E020EE36E0A3
S1131450F90124812B7FFC012483DF91CF91FF913B
S1131460EF919F918F913F912F910F9000923B00AC
S11314700F9000923A000F90009238000F90009263
S11314803F000F901F9018951F920F9200903F00FD
S11314900F921124009038000F921092380000909F
S11314A03A000F9210923A0000903B000F92109273
S11314B03B002F933F938F939F93EF93FF93CF938F
S11314C0DF93CDB7DEB780EE96E020EE36E0F9018B
S11314D024812D7FFC012483DF91CF91FF91EF9133
S11314E09F918F913F912F910F9000923B000F900D
S11314F000923A000F90009238000F9000923F0043
S11315000F901F9018951F920F9200903F000F921A
S11315101124009038000F921092380000903A0085
S11315200F9210923A0000903B000F9210923B00F1
S11315302F933F938F939F93EF93FF93CF93DF93D7
S1131540CDB7DEB780EE96E020EE36E0F9012481D7
S11315502E7FFC012483DF91CF91FF91EF919F9126
S11315608F913F912F910F9000923B000F9000922A
S11315703A000F90009238000F9000923F000F90B5
S11315801F901895CF93DF93CDB7DEB780E019D0C5
S1131590809300209093012083E013D08093062051
S11315A09093072081E00DD0809302209093032034
S11315B082E007D08093042090930520DF91CF919F
S11315C00895CF93DF93CDB7DEB72B97CDBFDEBFA2
S11315D08B8719821A828B85882F90E08130910540
S11315E061F1823091051CF4009751F080C0823083
S11315F0910509F440C08330910509F45AC077C0BD
S11316001B821C8214C08B819C81880F991F855F6B
S11316109F4DFC012081318189819A81820F931F22
S113162089839A838B819C8101968B839C838B8194
S11316309C81843091053CF35AC01D821E8215C0E2
S11316408D819E810896880F991F855F9F4DFC01AF
S11316502081318189819A81820F931F89839A83A2
S11316608D819E8101968D839E838D819E818430A0
S1131670910534F33CC01F82188615C08F8198856C
S11316800C96880F991F855F9F4DFC012081318145
S113169089819A81820F931F89839A838F81988588
S11316A001968F8398878F8198858430910534F3D0
S11316B01EC019861A8615C089859A850496880FD6
S11316C0991F855F9F4DFC012081318189819A8119
S11316D0820F931F89839A8389859A8501968987C6
S11316E09A8789859A858430910534F3000089812D
S11316F09A8199230CF403969595879595958795EA
S11317002B96CDBFDEBFDF91CF910895CF93DF93AA
S1131710CDB7DEB710922B2010922C2010922D20E2
S113172010922E20DF91CF9108950F93CF93DF93E2
S11317301F92CDB7DEB72FB72983F8941BBEFC01E7
S113174008ED04BF608389818FBF0F90DF91CF9133
S11317500F910895CF93DF93D82F823059F028F456
S1131760882371F0813021F50DC0833029F0843055
S1131770F9F404C0C4E007C0C8E005C0C0E103C078
S1131780C1E001C0C2E0E0E5F0E080818C2B808301
S1131790642B81E490E0C9DFE1E5F0E090819C23D3
S11317A0E9F36D2F80E490E0C0DF21E030E002C077
S11317B02FEF3FEF822F932FDF91CF910895CF9397
S11317C0DF93FC01EB01809140008770823071F05F
S11317D038F4882309F442C0813009F0B4C00FC042
S11317E08330B1F0843009F0AEC01BC080E09DE7C7
S11317F0A0E0B0E080839183A283B38337C080E00C
S113180098E4A8EEB1E080839183A283B3832EC0D1
S113181080E094E2A4EFB0E080839183A283B38359
S113182025C025E530E0D9018C9180E894E8AEE14B
S1131830B0E080839183A283B383D9018C91A82FD4
S1131840AF7109F4A1E0B0E020E834E84EE150E0E3
S1131850A3D0608371838283938308C080E894E873
S1131860AEE1B0E080839183A283B3838091410091
S11318708C7790E096958795969587958930910514
S113188059F16CF483309105C1F01CF4019781F493
S113189037C085309105B1F0079751F418C08D30E9
S11318A0910521F11CF40B9719F41BC00F9719F142
S11318B021E030E040E050E027C024E030E040E0A8
S11318C050E022C028E030E040E050E01DC020E1BC
S11318D030E040E050E018C020E230E040E050E06A
S11318E013C020E430E040E050E00EC020E830E0D7
S11318F040E050E009C020E031E040E050E004C0A6
S113190022E030E040E050E08091410081FF09C0D6
S1131910220F331F441F551F220F331F441F551F0F
S113192006C080FF04C0220F331F441F551F60816F
S11319307181828193810ED0288339834A835B83AA
S113194021E030E002C02FEF3FEF822F932FDF9191
S1131950CF910895A1E21A2EAA1BBB1BFD010DC055
S1131960AA1FBB1FEE1FFF1FA217B307E407F5074B
S113197020F0A21BB30BE40BF50B661F771F881F27
S1131980991F1A9469F760957095809590959B01BD
S1131990AC01BD01CF01089509D0A59F900DB49F5E
S11319A0900DA49F800D911D11240895A29FB00154
S11319B0B39FC001A39F700D811D1124911DB29F7F
S11119C0700D811D1124911D0895F894FFCF20
S9030000FC
